{
  "contractName": "VotingSystem",
  "abi": [
    {
      "inputs": [],
      "stateMutability": "nonpayable",
      "type": "constructor"
    },
    {
      "anonymous": false,
      "inputs": [
        {
          "indexed": false,
          "internalType": "uint256",
          "name": "candidateId",
          "type": "uint256"
        },
        {
          "indexed": false,
          "internalType": "string",
          "name": "name",
          "type": "string"
        }
      ],
      "name": "CandidateAdded",
      "type": "event"
    },
    {
      "anonymous": false,
      "inputs": [],
      "name": "ElectionReset",
      "type": "event"
    },
    {
      "anonymous": false,
      "inputs": [
        {
          "indexed": false,
          "internalType": "bool",
          "name": "isOpen",
          "type": "bool"
        }
      ],
      "name": "ElectionToggled",
      "type": "event"
    },
    {
      "anonymous": false,
      "inputs": [
        {
          "indexed": false,
          "internalType": "address",
          "name": "voter",
          "type": "address"
        },
        {
          "indexed": false,
          "internalType": "uint256",
          "name": "candidateId",
          "type": "uint256"
        }
      ],
      "name": "Voted",
      "type": "event"
    },
    {
      "anonymous": false,
      "inputs": [
        {
          "indexed": false,
          "internalType": "address",
          "name": "voterAddress",
          "type": "address"
        }
      ],
      "name": "VoterAuthorized",
      "type": "event"
    },
    {
      "inputs": [],
      "name": "admin",
      "outputs": [
        {
          "internalType": "address",
          "name": "",
          "type": "address"
        }
      ],
      "stateMutability": "view",
      "type": "function",
      "constant": true
    },
    {
      "inputs": [
        {
          "internalType": "address",
          "name": "",
          "type": "address"
        }
      ],
      "name": "authorizedVoters",
      "outputs": [
        {
          "internalType": "bool",
          "name": "",
          "type": "bool"
        }
      ],
      "stateMutability": "view",
      "type": "function",
      "constant": true
    },
    {
      "inputs": [
        {
          "internalType": "uint256",
          "name": "",
          "type": "uint256"
        }
      ],
      "name": "candidates",
      "outputs": [
        {
          "internalType": "uint256",
          "name": "id",
          "type": "uint256"
        },
        {
          "internalType": "string",
          "name": "name",
          "type": "string"
        },
        {
          "internalType": "uint256",
          "name": "voteCount",
          "type": "uint256"
        }
      ],
      "stateMutability": "view",
      "type": "function",
      "constant": true
    },
    {
      "inputs": [],
      "name": "candidatesCount",
      "outputs": [
        {
          "internalType": "uint256",
          "name": "",
          "type": "uint256"
        }
      ],
      "stateMutability": "view",
      "type": "function",
      "constant": true
    },
    {
      "inputs": [],
      "name": "electionOpen",
      "outputs": [
        {
          "internalType": "bool",
          "name": "",
          "type": "bool"
        }
      ],
      "stateMutability": "view",
      "type": "function",
      "constant": true
    },
    {
      "inputs": [
        {
          "internalType": "address",
          "name": "",
          "type": "address"
        }
      ],
      "name": "voters",
      "outputs": [
        {
          "internalType": "bool",
          "name": "",
          "type": "bool"
        }
      ],
      "stateMutability": "view",
      "type": "function",
      "constant": true
    },
    {
      "inputs": [],
      "name": "toggleElection",
      "outputs": [],
      "stateMutability": "nonpayable",
      "type": "function"
    },
    {
      "inputs": [],
      "name": "resetElection",
      "outputs": [],
      "stateMutability": "nonpayable",
      "type": "function"
    },
    {
      "inputs": [
        {
          "internalType": "address",
          "name": "_voterAddress",
          "type": "address"
        }
      ],
      "name": "addVoter",
      "outputs": [],
      "stateMutability": "nonpayable",
      "type": "function"
    },
    {
      "inputs": [
        {
          "internalType": "uint256",
          "name": "_candidateId",
          "type": "uint256"
        }
      ],
      "name": "vote",
      "outputs": [],
      "stateMutability": "nonpayable",
      "type": "function"
    },
    {
      "inputs": [
        {
          "internalType": "string",
          "name": "_name",
          "type": "string"
        }
      ],
      "name": "addCandidate",
      "outputs": [],
      "stateMutability": "nonpayable",
      "type": "function"
    },
    {
      "inputs": [
        {
          "internalType": "uint256",
          "name": "_id",
          "type": "uint256"
        }
      ],
      "name": "getCandidate",
      "outputs": [
        {
          "internalType": "uint256",
          "name": "",
          "type": "uint256"
        },
        {
          "internalType": "string",
          "name": "",
          "type": "string"
        },
        {
          "internalType": "uint256",
          "name": "",
          "type": "uint256"
        }
      ],
      "stateMutability": "view",
      "type": "function",
      "constant": true
    }
  ],
  "bytecode": "0x608060405234801561000f575f80fd5b505f805460ff60a01b1933166001600160a81b0319909116179055610cb9806100375f395ff3fe608060405234801561000f575f80fd5b50600436106100b1575f3560e01c806366acfa4a1161006e57806366acfa4a14610151578063a3ec138d14610173578063d709032214610195578063e8f305231461019d578063f4ab9adf146101a5578063f851a440146101b8575f80fd5b80630121b93f146100b55780632d35a8a2146100ca5780633477ee2e146100e657806335b8e82014610108578063462e91ec1461011b5780634a39d4421461012e575b5f80fd5b6100c86100c336600461096b565b6101e2565b005b6100d360045481565b6040519081526020015b60405180910390f35b6100f96100f436600461096b565b6103bf565b6040516100dd939291906109c5565b6100f961011636600461096b565b610466565b6100c8610129366004610a01565b610594565b5f5461014190600160a01b900460ff1681565b60405190151581526020016100dd565b61014161015f366004610aac565b60036020525f908152604090205460ff1681565b610141610181366004610aac565b60026020525f908152604090205460ff1681565b6100c86105c9565b6100c8610657565b6100c86101b3366004610aac565b61075f565b5f546101ca906001600160a01b031681565b6040516001600160a01b0390911681526020016100dd565b5f54600160a01b900460ff166102315760405162461bcd60e51b815260206004820152600f60248201526e115b1958dd1a5bdb8818db1bdcd959608a1b60448201526064015b60405180910390fd5b335f9081526003602052604090205460ff1661028f5760405162461bcd60e51b815260206004820152601760248201527f566f746572206973206e6f7420617574686f72697a65640000000000000000006044820152606401610228565b335f9081526002602052604090205460ff16156102f85760405162461bcd60e51b815260206004820152602160248201527f566f7465722068617320616c7265616479206361737420746865697220766f746044820152606560f81b6064820152608401610228565b5f8111801561030957506004548111155b6103495760405162461bcd60e51b8152602060048201526011602482015270496e76616c69642063616e64696461746560781b6044820152606401610228565b335f908152600260208181526040808420805460ff1916600190811790915585855290915282200180549161037d83610ad9565b909155505060408051338152602081018390527f4d99b957a2bc29a30ebd96a7be8e68fe50a3c701db28a91436490b7d53870ca491015b60405180910390a150565b600160208190525f9182526040909120805491810180546103df90610afd565b80601f016020809104026020016040519081016040528092919081815260200182805461040b90610afd565b80156104565780601f1061042d57610100808354040283529160200191610456565b820191905f5260205f20905b81548152906001019060200180831161043957829003601f168201915b5050505050908060020154905083565b5f60605f808411801561047b57506004548411155b6104be5760405162461bcd60e51b8152602060048201526014602482015273125b9d985b1a590818d85b991a59185d1948125160621b6044820152606401610228565b5f8481526001602081815260408084208151606081019092528054825292830180549193928401916104ef90610afd565b80601f016020809104026020016040519081016040528092919081815260200182805461051b90610afd565b80156105665780601f1061053d57610100808354040283529160200191610566565b820191905f5260205f20905b81548152906001019060200180831161054957829003601f168201915b5050509183525050600291909101546020918201528151908201516040909201519097919650945092505050565b5f546001600160a01b031633146105bd5760405162461bcd60e51b815260040161022890610b35565b6105c68161088b565b50565b5f546001600160a01b031633146105f25760405162461bcd60e51b815260040161022890610b35565b5f805460ff600160a01b808304821615810260ff60a01b1990931692909217928390556040517f792e3afc1c0373c2a049621dcddbf561a24e75aa1838ad5fecbf9c66760d1fbc9361064d9390049091161515815260200190565b60405180910390a1565b5f546001600160a01b031633146106805760405162461bcd60e51b815260040161022890610b35565b5f54600160a01b900460ff16156106e85760405162461bcd60e51b815260206004820152602660248201527f43616e6e6f7420726573657420656c656374696f6e207768696c652069742069604482015265399037b832b760d11b6064820152608401610228565b60015b600454811161072f575f8181526001602081905260408220828155919061071490830182610921565b505f600291909101558061072781610ad9565b9150506106eb565b505f60048190556040517f8d1085cd9eceaab0b77fd20c66dea55df08e5ef2d52859c2cb4a1e16ba9476c09190a1565b5f546001600160a01b031633146107885760405162461bcd60e51b815260040161022890610b35565b6001600160a01b0381166107d05760405162461bcd60e51b815260206004820152600f60248201526e496e76616c6964206164647265737360881b6044820152606401610228565b6001600160a01b0381165f9081526003602052604090205460ff16156108385760405162461bcd60e51b815260206004820152601b60248201527f566f74657220697320616c726561647920617574686f72697a656400000000006044820152606401610228565b6001600160a01b0381165f81815260036020908152604091829020805460ff1916600117905590519182527f0ca65a9f1f88bd7257ac852d1062853358f81cdc56f9634dcbeed6090f8dfb4391016103b4565b60048054905f61089a83610ad9565b90915550506040805160608101825260045480825260208083018581525f84860181905292835260019182905293909120825181559251919291908201906108e29082610ba7565b5060409182015160029091015560045490517fe83b2a43e7e82d975c8a0a6d2f045153c869e111136a34d1889ab7b598e396a3916103b4918490610c63565b50805461092d90610afd565b5f825580601f1061093c575050565b601f0160209004905f5260205f20908101906105c691905b80821115610967575f8155600101610954565b5090565b5f6020828403121561097b575f80fd5b5035919050565b5f81518084525f5b818110156109a65760208185018101518683018201520161098a565b505f602082860101526020601f19601f83011685010191505092915050565b838152606060208201525f6109dd6060830185610982565b9050826040830152949350505050565b634e487b7160e01b5f52604160045260245ffd5b5f60208284031215610a11575f80fd5b813567ffffffffffffffff80821115610a28575f80fd5b818401915084601f830112610a3b575f80fd5b813581811115610a4d57610a4d6109ed565b604051601f8201601f19908116603f01168101908382118183101715610a7557610a756109ed565b81604052828152876020848701011115610a8d575f80fd5b826020860160208301375f928101602001929092525095945050505050565b5f60208284031215610abc575f80fd5b81356001600160a01b0381168114610ad2575f80fd5b9392505050565b5f60018201610af657634e487b7160e01b5f52601160045260245ffd5b5060010190565b600181811c90821680610b1157607f821691505b602082108103610b2f57634e487b7160e01b5f52602260045260245ffd5b50919050565b6020808252600a908201526927b7363c9030b236b4b760b11b604082015260600190565b601f821115610ba2575f81815260208120601f850160051c81016020861015610b7f5750805b601f850160051c820191505b81811015610b9e57828155600101610b8b565b5050505b505050565b815167ffffffffffffffff811115610bc157610bc16109ed565b610bd581610bcf8454610afd565b84610b59565b602080601f831160018114610c08575f8415610bf15750858301515b5f19600386901b1c1916600185901b178555610b9e565b5f85815260208120601f198616915b82811015610c3657888601518255948401946001909101908401610c17565b5085821015610c5357878501515f19600388901b60f8161c191681555b5050505050600190811b01905550565b828152604060208201525f610c7b6040830184610982565b94935050505056fea264697066735822122092b0eb04f86097ddcd4c4c0d471f07e754b1acc07c3ae2fff5778968978d7bfc64736f6c63430008150033",
  "immutableReferences": {},
  "source": "// SPDX-License-Identifier: MIT\r\npragma solidity ^0.8.0;\r\n\r\ncontract VotingSystem {\r\n    address public admin;\r\n    bool public electionOpen;\r\n    \r\n    struct Candidate {\r\n        uint id;\r\n        string name;\r\n        uint voteCount;\r\n    }\r\n\r\n    mapping(uint => Candidate) public candidates;\r\n    mapping(address => bool) public voters; // Tracks if an authorized voter has voted\r\n    mapping(address => bool) public authorizedVoters; // Tracks which wallets are authorized to vote\r\n    uint public candidatesCount;\r\n\r\n    event ElectionToggled(bool isOpen);\r\n    event Voted(address voter, uint candidateId);\r\n    event CandidateAdded(uint candidateId, string name);\r\n    event VoterAuthorized(address voterAddress);\r\n    event ElectionReset();\r\n\r\n    modifier onlyAdmin() {\r\n        require(msg.sender == admin, \"Only admin\");\r\n        _;\r\n    }\r\n\r\n    modifier onlyWhenOpen() {\r\n        require(electionOpen, \"Election closed\");\r\n        _;\r\n    }\r\n\r\n    // The constructor is now empty. A new election will have no candidates by default.\r\n    constructor() {\r\n        admin = msg.sender;\r\n        electionOpen = false;\r\n    }\r\n\r\n    function toggleElection() public onlyAdmin {\r\n        electionOpen = !electionOpen;\r\n        emit ElectionToggled(electionOpen);\r\n    }\r\n    \r\n    function resetElection() public onlyAdmin {\r\n        require(!electionOpen, \"Cannot reset election while it is open\");\r\n        \r\n        // Reset all votes and candidates\r\n        for (uint i = 1; i <= candidatesCount; i++) {\r\n            delete candidates[i];\r\n        }\r\n        candidatesCount = 0;\r\n        \r\n        // Reset authorized voters and voting status\r\n        // A fresh election requires a fresh list of authorized voters.\r\n        // We do this by redeploying the contract each time for this prototype.\r\n        // The front-end will handle the state update more gracefully.\r\n        \r\n        emit ElectionReset();\r\n    }\r\n\r\n    function addVoter(address _voterAddress) public onlyAdmin {\r\n        require(_voterAddress != address(0), \"Invalid address\");\r\n        require(!authorizedVoters[_voterAddress], \"Voter is already authorized\");\r\n\r\n        authorizedVoters[_voterAddress] = true;\r\n        emit VoterAuthorized(_voterAddress);\r\n    }\r\n\r\n    function vote(uint _candidateId) public onlyWhenOpen {\r\n        require(authorizedVoters[msg.sender], \"Voter is not authorized\");\r\n        require(!voters[msg.sender], \"Voter has already cast their vote\");\r\n        require(_candidateId > 0 && _candidateId <= candidatesCount, \"Invalid candidate\");\r\n\r\n        voters[msg.sender] = true;\r\n        candidates[_candidateId].voteCount++;\r\n        emit Voted(msg.sender, _candidateId);\r\n    }\r\n\r\n    function addCandidate(string memory _name) public onlyAdmin {\r\n        _addCandidate(_name);\r\n    }\r\n\r\n    function _addCandidate(string memory _name) private {\r\n        candidatesCount++;\r\n        candidates[candidatesCount] = Candidate(candidatesCount, _name, 0);\r\n        emit CandidateAdded(candidatesCount, _name);\r\n    }\r\n\r\n    function getCandidate(uint _id) public view returns (uint, string memory, uint) {\r\n        require(_id > 0 && _id <= candidatesCount, \"Invalid candidate ID\");\r\n        Candidate memory c = candidates[_id];\r\n        return (c.id, c.name, c.voteCount);\r\n    }\r\n}",
  "sourcePath": "C:\\Users\\user\\blockchain-voting\\contracts\\contracts\\voting.sol",
  "compiler": {
    "name": "solc",
    "version": "0.8.21+commit.d9974bed.Emscripten.clang"
  },
  "schemaVersion": "3.4.16",
  "updatedAt": "2025-07-27T18:08:25.437Z",
  "networkType": "ethereum",
  "devdoc": {
    "kind": "dev",
    "methods": {},
    "version": 1
  },
  "userdoc": {
    "kind": "user",
    "methods": {},
    "version": 1
  }
}