{
  "contractName": "VotingSystem",
  "abi": [
    {
      "inputs": [],
      "stateMutability": "nonpayable",
      "type": "constructor"
    },
    {
      "anonymous": false,
      "inputs": [
        {
          "indexed": false,
          "internalType": "uint256",
          "name": "candidateId",
          "type": "uint256"
        },
        {
          "indexed": false,
          "internalType": "string",
          "name": "name",
          "type": "string"
        }
      ],
      "name": "CandidateAdded",
      "type": "event"
    },
    {
      "anonymous": false,
      "inputs": [],
      "name": "ElectionReset",
      "type": "event"
    },
    {
      "anonymous": false,
      "inputs": [
        {
          "indexed": false,
          "internalType": "bool",
          "name": "isOpen",
          "type": "bool"
        }
      ],
      "name": "ElectionToggled",
      "type": "event"
    },
    {
      "anonymous": false,
      "inputs": [
        {
          "indexed": false,
          "internalType": "address",
          "name": "voter",
          "type": "address"
        },
        {
          "indexed": false,
          "internalType": "uint256",
          "name": "candidateId",
          "type": "uint256"
        }
      ],
      "name": "Voted",
      "type": "event"
    },
    {
      "anonymous": false,
      "inputs": [
        {
          "indexed": false,
          "internalType": "address",
          "name": "voterAddress",
          "type": "address"
        }
      ],
      "name": "VoterAuthorized",
      "type": "event"
    },
    {
      "inputs": [],
      "name": "admin",
      "outputs": [
        {
          "internalType": "address",
          "name": "",
          "type": "address"
        }
      ],
      "stateMutability": "view",
      "type": "function"
    },
    {
      "inputs": [
        {
          "internalType": "uint256",
          "name": "",
          "type": "uint256"
        }
      ],
      "name": "authorizedVoterList",
      "outputs": [
        {
          "internalType": "address",
          "name": "",
          "type": "address"
        }
      ],
      "stateMutability": "view",
      "type": "function"
    },
    {
      "inputs": [
        {
          "internalType": "address",
          "name": "",
          "type": "address"
        }
      ],
      "name": "authorizedVoters",
      "outputs": [
        {
          "internalType": "bool",
          "name": "",
          "type": "bool"
        }
      ],
      "stateMutability": "view",
      "type": "function"
    },
    {
      "inputs": [
        {
          "internalType": "uint256",
          "name": "",
          "type": "uint256"
        }
      ],
      "name": "candidates",
      "outputs": [
        {
          "internalType": "uint256",
          "name": "id",
          "type": "uint256"
        },
        {
          "internalType": "string",
          "name": "name",
          "type": "string"
        },
        {
          "internalType": "uint256",
          "name": "voteCount",
          "type": "uint256"
        }
      ],
      "stateMutability": "view",
      "type": "function"
    },
    {
      "inputs": [],
      "name": "candidatesCount",
      "outputs": [
        {
          "internalType": "uint256",
          "name": "",
          "type": "uint256"
        }
      ],
      "stateMutability": "view",
      "type": "function"
    },
    {
      "inputs": [],
      "name": "electionOpen",
      "outputs": [
        {
          "internalType": "bool",
          "name": "",
          "type": "bool"
        }
      ],
      "stateMutability": "view",
      "type": "function"
    },
    {
      "inputs": [
        {
          "internalType": "address",
          "name": "",
          "type": "address"
        }
      ],
      "name": "voters",
      "outputs": [
        {
          "internalType": "bool",
          "name": "",
          "type": "bool"
        }
      ],
      "stateMutability": "view",
      "type": "function"
    },
    {
      "inputs": [],
      "name": "toggleElection",
      "outputs": [],
      "stateMutability": "nonpayable",
      "type": "function"
    },
    {
      "inputs": [],
      "name": "resetElection",
      "outputs": [],
      "stateMutability": "nonpayable",
      "type": "function"
    },
    {
      "inputs": [
        {
          "internalType": "address",
          "name": "_voterAddress",
          "type": "address"
        }
      ],
      "name": "addVoter",
      "outputs": [],
      "stateMutability": "nonpayable",
      "type": "function"
    },
    {
      "inputs": [
        {
          "internalType": "uint256",
          "name": "_candidateId",
          "type": "uint256"
        }
      ],
      "name": "vote",
      "outputs": [],
      "stateMutability": "nonpayable",
      "type": "function"
    },
    {
      "inputs": [
        {
          "internalType": "string",
          "name": "_name",
          "type": "string"
        }
      ],
      "name": "addCandidate",
      "outputs": [],
      "stateMutability": "nonpayable",
      "type": "function"
    },
    {
      "inputs": [
        {
          "internalType": "uint256",
          "name": "_id",
          "type": "uint256"
        }
      ],
      "name": "getCandidate",
      "outputs": [
        {
          "internalType": "uint256",
          "name": "",
          "type": "uint256"
        },
        {
          "internalType": "string",
          "name": "",
          "type": "string"
        },
        {
          "internalType": "uint256",
          "name": "",
          "type": "uint256"
        }
      ],
      "stateMutability": "view",
      "type": "function"
    }
  ],
  "bytecode": "0x608060405234801561000f575f80fd5b505f805460ff60a01b1933166001600160a81b0319909116179055610e2f806100375f395ff3fe608060405234801561000f575f80fd5b50600436106100cb575f3560e01c806351675f1f11610088578063d709032211610063578063d7090322146101da578063e8f30523146101e2578063f4ab9adf146101ea578063f851a440146101fd575f80fd5b806351675f1f1461016b57806366acfa4a14610196578063a3ec138d146101b8575f80fd5b80630121b93f146100cf5780632d35a8a2146100e45780633477ee2e1461010057806335b8e82014610122578063462e91ec146101355780634a39d44214610148575b5f80fd5b6100e26100dd366004610acd565b61020f565b005b6100ed60055481565b6040519081526020015b60405180910390f35b61011361010e366004610acd565b6103ec565b6040516100f793929190610b27565b610113610130366004610acd565b610493565b6100e2610143366004610b63565b6105c1565b5f5461015b90600160a01b900460ff1681565b60405190151581526020016100f7565b61017e610179366004610acd565b6105f6565b6040516001600160a01b0390911681526020016100f7565b61015b6101a4366004610c0e565b60036020525f908152604090205460ff1681565b61015b6101c6366004610c0e565b60026020525f908152604090205460ff1681565b6100e261061e565b6100e26106ac565b6100e26101f8366004610c0e565b610863565b5f5461017e906001600160a01b031681565b5f54600160a01b900460ff1661025e5760405162461bcd60e51b815260206004820152600f60248201526e115b1958dd1a5bdb8818db1bdcd959608a1b60448201526064015b60405180910390fd5b335f9081526003602052604090205460ff166102bc5760405162461bcd60e51b815260206004820152601760248201527f566f746572206973206e6f7420617574686f72697a65640000000000000000006044820152606401610255565b335f9081526002602052604090205460ff16156103255760405162461bcd60e51b815260206004820152602160248201527f566f7465722068617320616c7265616479206361737420746865697220766f746044820152606560f81b6064820152608401610255565b5f8111801561033657506005548111155b6103765760405162461bcd60e51b8152602060048201526011602482015270496e76616c69642063616e64696461746560781b6044820152606401610255565b335f908152600260208181526040808420805460ff191660019081179091558585529091528220018054916103aa83610c3b565b909155505060408051338152602081018390527f4d99b957a2bc29a30ebd96a7be8e68fe50a3c701db28a91436490b7d53870ca491015b60405180910390a150565b600160208190525f91825260409091208054918101805461040c90610c5f565b80601f016020809104026020016040519081016040528092919081815260200182805461043890610c5f565b80156104835780601f1061045a57610100808354040283529160200191610483565b820191905f5260205f20905b81548152906001019060200180831161046657829003601f168201915b5050505050908060020154905083565b5f60605f80841180156104a857506005548411155b6104eb5760405162461bcd60e51b8152602060048201526014602482015273125b9d985b1a590818d85b991a59185d1948125160621b6044820152606401610255565b5f84815260016020818152604080842081516060810190925280548252928301805491939284019161051c90610c5f565b80601f016020809104026020016040519081016040528092919081815260200182805461054890610c5f565b80156105935780601f1061056a57610100808354040283529160200191610593565b820191905f5260205f20905b81548152906001019060200180831161057657829003601f168201915b5050509183525050600291909101546020918201528151908201516040909201519097919650945092505050565b5f546001600160a01b031633146105ea5760405162461bcd60e51b815260040161025590610c97565b6105f3816109d1565b50565b60048181548110610605575f80fd5b5f918252602090912001546001600160a01b0316905081565b5f546001600160a01b031633146106475760405162461bcd60e51b815260040161025590610c97565b5f805460ff600160a01b808304821615810260ff60a01b1990931692909217928390556040517f792e3afc1c0373c2a049621dcddbf561a24e75aa1838ad5fecbf9c66760d1fbc936106a29390049091161515815260200190565b60405180910390a1565b5f546001600160a01b031633146106d55760405162461bcd60e51b815260040161025590610c97565b5f54600160a01b900460ff161561073d5760405162461bcd60e51b815260206004820152602660248201527f43616e6e6f7420726573657420656c656374696f6e207768696c652069742069604482015265399037b832b760d11b6064820152608401610255565b60015b6005548111610784575f8181526001602081905260408220828155919061076990830182610a67565b505f600291909101558061077c81610c3b565b915050610740565b505f60058190555b60045481101561082d5760025f600483815481106107ac576107ac610cbb565b5f9182526020808320909101546001600160a01b031683528201929092526040018120805460ff19169055600480546003929190849081106107f0576107f0610cbb565b5f9182526020808320909101546001600160a01b031683528201929092526040019020805460ff191690558061082581610c3b565b91505061078c565b5061083960045f610a9e565b6040517f8d1085cd9eceaab0b77fd20c66dea55df08e5ef2d52859c2cb4a1e16ba9476c0905f90a1565b5f546001600160a01b0316331461088c5760405162461bcd60e51b815260040161025590610c97565b6001600160a01b0381166108d45760405162461bcd60e51b815260206004820152600f60248201526e496e76616c6964206164647265737360881b6044820152606401610255565b6001600160a01b0381165f9081526003602052604090205460ff161561093c5760405162461bcd60e51b815260206004820152601b60248201527f566f74657220697320616c726561647920617574686f72697a656400000000006044820152606401610255565b6001600160a01b0381165f818152600360209081526040808320805460ff191660019081179091556004805491820181559093527f8a35acfbc15ff81a39ae7d344fd709f28e8600b4aa8c65c6b64bfe7fe36bd19b90920180546001600160a01b0319168417905590519182527f0ca65a9f1f88bd7257ac852d1062853358f81cdc56f9634dcbeed6090f8dfb4391016103e1565b60058054905f6109e083610c3b565b90915550506040805160608101825260055480825260208083018581525f8486018190529283526001918290529390912082518155925191929190820190610a289082610d1d565b5060409182015160029091015560055490517fe83b2a43e7e82d975c8a0a6d2f045153c869e111136a34d1889ab7b598e396a3916103e1918490610dd9565b508054610a7390610c5f565b5f825580601f10610a82575050565b601f0160209004905f5260205f20908101906105f39190610ab5565b5080545f8255905f5260205f20908101906105f391905b5b80821115610ac9575f8155600101610ab6565b5090565b5f60208284031215610add575f80fd5b5035919050565b5f81518084525f5b81811015610b0857602081850181015186830182015201610aec565b505f602082860101526020601f19601f83011685010191505092915050565b838152606060208201525f610b3f6060830185610ae4565b9050826040830152949350505050565b634e487b7160e01b5f52604160045260245ffd5b5f60208284031215610b73575f80fd5b813567ffffffffffffffff80821115610b8a575f80fd5b818401915084601f830112610b9d575f80fd5b813581811115610baf57610baf610b4f565b604051601f8201601f19908116603f01168101908382118183101715610bd757610bd7610b4f565b81604052828152876020848701011115610bef575f80fd5b826020860160208301375f928101602001929092525095945050505050565b5f60208284031215610c1e575f80fd5b81356001600160a01b0381168114610c34575f80fd5b9392505050565b5f60018201610c5857634e487b7160e01b5f52601160045260245ffd5b5060010190565b600181811c90821680610c7357607f821691505b602082108103610c9157634e487b7160e01b5f52602260045260245ffd5b50919050565b6020808252600a908201526927b7363c9030b236b4b760b11b604082015260600190565b634e487b7160e01b5f52603260045260245ffd5b601f821115610d18575f81815260208120601f850160051c81016020861015610cf55750805b601f850160051c820191505b81811015610d1457828155600101610d01565b5050505b505050565b815167ffffffffffffffff811115610d3757610d37610b4f565b610d4b81610d458454610c5f565b84610ccf565b602080601f831160018114610d7e575f8415610d675750858301515b5f19600386901b1c1916600185901b178555610d14565b5f85815260208120601f198616915b82811015610dac57888601518255948401946001909101908401610d8d565b5085821015610dc957878501515f19600388901b60f8161c191681555b5050505050600190811b01905550565b828152604060208201525f610df16040830184610ae4565b94935050505056fea2646970667358221220cd5ffe16c72442a4530760454e20b055e711aaa0d58060eee918cd095a6c3c1564736f6c63430008150033",
  "immutableReferences": {},
  "source": "// SPDX-License-Identifier: MIT\r\npragma solidity ^0.8.0;\r\n\r\ncontract VotingSystem {\r\n    address public admin;\r\n    bool public electionOpen;\r\n    \r\n    struct Candidate {\r\n        uint id;\r\n        string name;\r\n        uint voteCount;\r\n    }\r\n\r\n    mapping(uint => Candidate) public candidates;\r\n    mapping(address => bool) public voters; // Tracks if an authorized voter has voted\r\n    mapping(address => bool) public authorizedVoters; // Tracks which wallets are authorized to vote\r\n    address[] public authorizedVoterList;\r\n    uint public candidatesCount;\r\n\r\n    event ElectionToggled(bool isOpen);\r\n    event Voted(address voter, uint candidateId);\r\n    event CandidateAdded(uint candidateId, string name);\r\n    event VoterAuthorized(address voterAddress);\r\n    event ElectionReset();\r\n\r\n    modifier onlyAdmin() {\r\n        require(msg.sender == admin, \"Only admin\");\r\n        _;\r\n    }\r\n\r\n    modifier onlyWhenOpen() {\r\n        require(electionOpen, \"Election closed\");\r\n        _;\r\n    }\r\n\r\n    constructor() {\r\n        admin = msg.sender;\r\n        electionOpen = false;\r\n    }\r\n\r\n    function toggleElection() public onlyAdmin {\r\n        electionOpen = !electionOpen;\r\n        emit ElectionToggled(electionOpen);\r\n    }\r\n    \r\n    function resetElection() public onlyAdmin {\r\n        require(!electionOpen, \"Cannot reset election while it is open\");\r\n        \r\n        // Clear all candidates\r\n        for (uint i = 1; i <= candidatesCount; i++) {\r\n            delete candidates[i];\r\n        }\r\n        candidatesCount = 0;\r\n        \r\n        // Clear all voters and their voting status using the authorizedVoterList\r\n        for (uint i = 0; i < authorizedVoterList.length; i++) {\r\n            delete voters[authorizedVoterList[i]];\r\n            delete authorizedVoters[authorizedVoterList[i]];\r\n        }\r\n        \r\n        // Clear the list of authorized voters itself\r\n        delete authorizedVoterList;\r\n        \r\n        emit ElectionReset();\r\n    }\r\n\r\n    function addVoter(address _voterAddress) public onlyAdmin {\r\n        require(_voterAddress != address(0), \"Invalid address\");\r\n        require(!authorizedVoters[_voterAddress], \"Voter is already authorized\");\r\n\r\n        authorizedVoters[_voterAddress] = true;\r\n        authorizedVoterList.push(_voterAddress);\r\n        emit VoterAuthorized(_voterAddress);\r\n    }\r\n\r\n    function vote(uint _candidateId) public onlyWhenOpen {\r\n        require(authorizedVoters[msg.sender], \"Voter is not authorized\");\r\n        require(!voters[msg.sender], \"Voter has already cast their vote\");\r\n        require(_candidateId > 0 && _candidateId <= candidatesCount, \"Invalid candidate\");\r\n\r\n        voters[msg.sender] = true;\r\n        candidates[_candidateId].voteCount++;\r\n        emit Voted(msg.sender, _candidateId);\r\n    }\r\n\r\n    function addCandidate(string memory _name) public onlyAdmin {\r\n        _addCandidate(_name);\r\n    }\r\n\r\n    function _addCandidate(string memory _name) private {\r\n        candidatesCount++;\r\n        candidates[candidatesCount] = Candidate(candidatesCount, _name, 0);\r\n        emit CandidateAdded(candidatesCount, _name);\r\n    }\r\n\r\n    function getCandidate(uint _id) public view returns (uint, string memory, uint) {\r\n        require(_id > 0 && _id <= candidatesCount, \"Invalid candidate ID\");\r\n        Candidate memory c = candidates[_id];\r\n        return (c.id, c.name, c.voteCount);\r\n    }\r\n}",
  "sourcePath": "C:\\Users\\user\\blockchain-voting\\contracts\\contracts\\voting.sol",
  "compiler": {
    "name": "solc",
    "version": "0.8.21+commit.d9974bed.Emscripten.clang"
  },
  "schemaVersion": "3.4.16",
  "updatedAt": "2025-07-28T04:58:35.855Z",
  "devdoc": {
    "kind": "dev",
    "methods": {},
    "version": 1
  },
  "userdoc": {
    "kind": "user",
    "methods": {},
    "version": 1
  }
}